:100000000C942A000C946A020C9447000C9447004C
:100010000C9447000C9447000C9447000C94470044
:100020000C9447000C9447000C9447000C94DE009D
:100030000C9403010C9447000C9447000C94470067
:100040000C9447000C9447000C9447000C94470014
:100050000C94470011241FBECFE5D4E0DEBFCDBF16
:1000600010E0A0E6B0E0E4E5F7E002C005900D92F4
:10007000AC3BB107D9F710E0ACEBB0E001C01D928A
:10008000A93CB107E1F70E9407030C94A8030C9464
:1000900000001DBC1CBC82E19AE79BBD8ABD1FBC51
:1000A0008CE08EBD08B604FEFDCF80E188BF0895C8
:1000B000982FBB9A80E064E670E00E94580361507C
:1000C0006CBF84E683BF08959C0140E050E060E48B
:1000D00072E48FE090E00E946B032150304086E88C
:1000E00080BD88E18AB930BD29B908955D9BFECFF6
:1000F0008CB9089520E004C05D9BFECF2F5FECB962
:10010000FC01E20FF11DE081EE23B1F708955F9B42
:10011000FECF8CB108959C0140E050E060E472E4B1
:100120008FE090E00E946B032150304030BD29B930
:1001300088EB8AB986E880BD78940895882351F4C5
:100140008091B900882369F481E08093B90080919F
:10015000BD000895813029F46093BD001092B9006C
:10016000089580E00895882351F48091B800882391
:1001700079F481E08093B8008091BC0008958130CB
:1001800039F48CB18093BC001092B80081E00895DE
:1001900080E008951F93CF93DF93EC0110E004C03B
:1001A0001F5F81E00E949E00FE01E10FF11D608152
:1001B0006623B1F7DF91CF911F9108951F920F929F
:1001C0000FB60F9211242F933F934F935F936F932A
:1001D0007F938F939F93AF93BF93EF93FF9381E0B0
:1001E0000E94B300FF91EF91BF91AF919F918F91CA
:1001F0007F916F915F914F913F912F910F900FBE23
:100200000F901F9018951F920F920FB60F92112406
:100210002F933F934F935F936F937F938F939F930E
:10022000AF93BF93EF93FF9380E060E00E949E0046
:1002300081118CB9FF91EF91BF91AF919F918F91F7
:100240007F916F915F914F913F912F910F900FBED2
:100250000F901F901895AC0120E001C02F5FE22F96
:10026000F0E0DB01AE0FBF1F8C91E40FF51F808320
:100270008823A1F70895AC0120E0322F3F5FFA01F7
:10028000E20FF11D8081882311F0232FF6CF90E03B
:10029000FB01E90FF11D80819F5F8823C9F73917A2
:1002A00091F40DC0E22FF0E03197DA01AE0FBF1FDD
:1002B000E60FF71F9C918081981729F42150222383
:1002C00089F781E0089580E00895AC0120E0922F45
:1002D0009F5FFA01E20FF11D8081882311F0292F21
:1002E000F6CF822F08959C018A30910528F4805D15
:1002F0008093BE0041E02BC040E0E42FF0E0E254E8
:10030000FF4FC9016AE070E00E944403805D808372
:10031000C9016AE070E00E9444039B014F5F6115D0
:10032000710559F7842F8695AEEBB0E0E42FF0E02D
:10033000E354FF4F282F30E02A0F3B1F05C09C914C
:1003400080818D9390833197A217B307C1F7E42F73
:10035000F0E0E254FF4F10828EEB90E00895AA98EF
:1003600095B3282F207F9F70292B25BBAB9A92E055
:100370009A95F1F7AB98E8E1F1E03197F1F795B391
:10038000282F2295207F9F70292B25BBAB9A91E0C7
:100390009A95F1F7AB988150823018F480E49FE190
:1003A00002C080E293E00197F1F70895DF93CF93C5
:1003B00000D000D0CDB7DEB7282F862F2093BB000A
:1003C0006093BA0090E8998390EC9A8394E99B83B8
:1003D00094ED9C838150FE01E20FF11D9081890F05
:1003E0000E94AF010F900F900F900F90CF91DF916F
:1003F0000895AA9A95B3282F207F9F70292B25BB9B
:10040000AB9A41E0942F9A95F1F7AB9820E931E04F
:10041000F9013197F1F795B38295807F9F70982B02
:1004200095BBAB9A842F8A95F1F7AB98C9010197D8
:10043000F1F78091BA008F5F8093BA00813150F05C
:100440008091BB008F5F8093BB004093BA0061E056
:100450000E94D601089584B38C6084BB80E69AEE36
:100460000197F1F784B3806F84BB82E30E94AF01F0
:1004700088E20E94AF018CE00E94AF0181E00E94FF
:10048000AF0181E061E00E94D60181E08093BA0073
:100490008093BB0008951F93CF93DF93EC0110E08E
:1004A00003C01F5F0E94F901FE01E10FF11D808171
:1004B0008823B9F7DF91CF911F91089581E00E94C1
:1004C000AF0181E08093BA008093BB0061E00E949D
:1004D000D60108951F920F920FB60F9211248F9399
:1004E00081E08093C6008F910F900FBE0F901F90F8
:1004F00018951F93182F8091C6008823F1F40E944D
:100500005E0280E690E00E944B021B3291F01C32AA
:1005100018F41A3291F407C01D3241F01F3269F409
:1005200089E690E008C081E790E005C089E790E0A7
:1005300002C081E890E00E944B021F910895CF9382
:10054000DF93EC018091C6008823E9F482E061E04A
:100550000E94D60186E890E00E944B0212C0809172
:10056000C600813011F413BE10C082E066E00E9424
:10057000D601CE010E9473010E944B020E944900E5
:100580002197209761F70E945E02DF91CF91089535
:100590000E945E028CE890E00E944B020E9487005D
:1005A000982F8C538230D0F7892F08958BE990E0F3
:1005B0000E944B020E94870008951F93CF93DF9300
:1005C0000E945E028CEA90E00E944B02C0E0D0E004
:1005D0000E948700182F80538A3090F4812F0E9448
:1005E000F901CE0133E0880F991F3A95E1F7CC0F5E
:1005F000DD1F8C0F9D1FC12FD0E0E097C80FD91FC2
:100600001D3331F7CE01DF91CF911F910895EF9205
:10061000FF921F93CF93DF9384E082BB82E085BF7C
:1006200080E48BBF78940E942B0280E895E20E94C0
:100630006400BA9A40E9E42E41E0F42E0E94D6020A
:10064000182F0E94DD02EC010E94C8028D33C9F40C
:100650000E945E02812F0E94790284E60E94580067
:10066000CE010E949F0213BE8091C600882349F4E8
:10067000C29A80E197E2F7013197F1F70197D9F734
:10068000C2981092C600DACFAA1BBB1B51E107C06B
:10069000AA1FBB1FA617B70710F0A61BB70B881F12
:1006A000991F5A95A9F780959095BC01CD010895A1
:1006B00097FB092E07260AD077FD04D0E5DF06D088
:1006C00000201AF4709561957F4F0895F6F7909584
:1006D00081959F4F089597FB092E05260ED057FD53
:1006E00004D014D00AD0001C38F4509540953095B1
:1006F00021953F4F4F4F5F4F0895F6F790958095A6
:10070000709561957F4F8F4F9F4F0895A1E21A2EEC
:10071000AA1BBB1BFD010DC0AA1FBB1FEE1FFF1FA5
:10072000A217B307E407F50720F0A21BB30BE40BF5
:10073000F50B661F771F881F991F1A9469F760953C
:100740007095809590959B01AC01BD01CF010895F6
:04075000F894FFCF4B
:1007540052756E6E696E673A00436F6F6B696E67B0
:1007640000446566726F737400506F70636F726ECD
:100774000042616B650054696D653A00707265737F
:10078400732053544152542E2E2E00656E7465729C
:10079400206F7065726174696F6E3A00656E74657E
:0C07A400722074696D653A0001010101CA
:00000001FF
