:100000000C942A000C948E010C9447000C94470029
:100010000C9447000C9447000C9447000C94470044
:100020000C9447000C9447000C9447000C94C300B8
:100030000C94E8000C9447000C9447000C94470083
:100040000C9447000C9447000C9447000C94470014
:100050000C94470011241FBECFE5D4E0DEBFCDBF16
:1000600010E0A0E6B0E0E0E7F4E002C005900D92F9
:10007000A437B107D9F710E0A4E7B0E001C01D92A2
:10008000A937B107E1F70E94E1010C9436020C9404
:1000900000009C0140E050E060E472E48FE090E0FA
:1000A0000E94F9012150304086E880BD88E18AB97C
:1000B00030BD29B908955D9BFECF8CB9089520E02D
:1000C00004C05D9BFECF2F5FECB9FC01E20FF11D78
:1000D000E081EE23B1F708955F9BFECF8CB10895C8
:1000E0009C0140E050E060E472E48FE090E00E9408
:1000F000F9012150304030BD29B988EB8AB986E832
:1001000080BD78940895882351F4809161008823FC
:1001100069F481E0809361008091750008958130D9
:1001200029F46093750010926100089580E00895AD
:10013000882351F480916000882379F481E08093D2
:100140006000809174000895813039F48CB18093FF
:1001500074001092600081E0089580E008951F937C
:10016000CF93DF93EC0110E004C01F5F81E00E9499
:100170008300FE01E10FF11D60816623B1F7DF917D
:10018000CF911F9108951F920F920FB60F921124D5
:100190002F933F934F935F936F937F938F939F938F
:1001A000AF93BF93EF93FF9381E00E949800FF917C
:1001B000EF91BF91AF919F918F917F916F915F91DF
:1001C0004F913F912F910F900FBE0F901F90189558
:1001D0001F920F920FB60F9211242F933F934F93BC
:1001E0005F936F937F938F939F93AF93BF93EF939F
:1001F000FF9380E060E00E94830081118CB9FF9141
:10020000EF91BF91AF919F918F917F916F915F918E
:100210004F913F912F910F900FBE0F901F90189507
:1002200080EF84BB8FEF85BB0895DF93CF93CDB76D
:10023000DEB760970FB6F894DEBF0FBECDBFDE010C
:100240001196E3E6F0E080E101900D928150E1F734
:1002500085B38F7085BB83B38F708F30C9F728EC5F
:1002600030E040E951E009C0CA010197F1F721509F
:10027000304003C028EC30E0F7CF21153105A1F75D
:1002800083B38F708F30B1F388EC90E0FA0131972F
:10029000F1F70197D9F783B38F708F3059F34FEE91
:1002A0003FED2FEB9FE745BB83B38F708F3011F08D
:1002B000E0E014C035BB83B38F708F3011F0E1E004
:1002C0000DC025BB83B38F708F3011F0E2E006C004
:1002D00095BB83B38F708F3031F3E3E08E3011F430
:1002E00080E009C08D3011F481E005C08B3011F041
:1002F00083E001C082E0F0E0EE0FFF1FEE0FFF1F72
:10030000E80FF11DEC0FFD1F818160960FB6F89488
:10031000DEBF0FBECDBFCF91DF9108951F920F9228
:100320000FB60F92112495980F900FBE0F901F904B
:1003300018952091620040E45FE101C0292F89B344
:10034000982F917080FDFACF2223C1F3CA01019743
:10035000F1F789B318BA982F917080FDEFCF909381
:10036000620080917600882311F48DE301C08CE354
:100370000E945B001092760008950F931F9300E097
:100380000E941501182F80538A3020F4812F0E947B
:100390005B000F5F1D3311F0033090F38DE30E947B
:1003A0005B001F910F9108950E9415018F3231F06B
:1003B0008A3221F08D3211F08B32B1F70E945B004E
:1003C0000895D098D89A8D9A959A0E94100180E845
:1003D00095E20E944900929A82E085BF80E48BBF3B
:1003E0007894D9980E94D4010E94BD010E9499017D
:1003F000F8CF97FB092E05260ED057FD04D014D058
:100400000AD0001C38F450954095309521953F4F07
:100410004F4F5F4F0895F6F79095809570956195D1
:100420007F4F8F4F9F4F0895A1E21A2EAA1BBB1B2F
:10043000FD010DC0AA1FBB1FEE1FFF1FA217B307B0
:10044000E407F50720F0A21BB30BE40BF50B661FC6
:10045000771F881F991F1A9469F76095709580958A
:1004600090959B01AC01BD01CF010895F894FFCF99
:100470000101013738392F3435362A3132332D3CDA
:04048000303D2B00E0
:00000001FF
